:100000000C9472000C9487000C9487000C94870069
:100010000C9487000C9487000C9487000C94870044
:100020000C9487000C9487000C9487000C94870034
:100030000C9487000C9487000C9487000C94870024
:100040000C9487000C9487000C9487000C94870014
:100050000C9487000C9487000C9487000C94870004
:100060000C9487000C9487000C9487000C948700F4
:100070000C9487000C9487000C9487000C948700E4
:100080000C9487000C9487000C9487000C948700D4
:100090000C9487000C9487000C9487000C948700C4
:1000A0000C9487000C9487000C9487000C948700B4
:1000B0000C9487000C9487000C9487000C948700A4
:1000C0000C9487000C9487000C9487000C94870094
:1000D0000C9487000C9487000C9487000C94870084
:1000E0000C94870011241FBECFEFD1E2DEBFCDBF3D
:1000F00016E0A0E0B2E0EEE6FBE002C005900D9253
:10010000AA34B107D9F70E9464050C94B5050C9484
:100110000000CF93DF9300D0CDB7DEB71A821982EB
:10012000F0E0E0E082E290E09093290480932804DC
:1001300022E020932A0490932C0480932B0421E046
:1001400020932D0490932F0480932E04109230045A
:10015000909332048093310423E0209333049093EE
:1001600035048093340424E02093360490933804BB
:100170008093370485E080933904109227048FEF31
:1001800090E09183808380E490E09583848380E88D
:1001900090E09383828388E090E09783868390E069
:1001A00080E00E94370387EA91E60197F1F700C0EB
:1001B0000000E981FA81E85DFB4F608171818281F5
:1001C0000E94200383ED90E30197F1F700C0000047
:1001D000E981FA81E85DFB4F6081718182810E9433
:1001E0002B0383ED90E30197F1F700C00000E98154
:1001F000FA81E85DFB4F6081718182810E9420035A
:1002000083ED90E30197F1F700C00000E981FA81E6
:10021000E55DFB4F6081718182810E942B03E98142
:10022000FA81E25DFB4F6081718182810E942B0324
:1002300089819A810E943C04E981FA81E25DFB4F49
:100240006081718182810E94200389819A810F904F
:100250000F90DF91CF9108958F929F92AF92BF92AE
:10026000CF92DF92EF92FF920F931F93CF93DF9382
:10027000CDB7DEB728970FB6F894DEBF0FBECDBF5F
:10028000B82EA92E962E872E6A018901F12CE12C19
:100290008F2D90E0801791079CF028960FB6F89468
:1002A000DEBF0FBECDBFDF91CF911F910F91FF90A9
:1002B000EF90DF90CF90BF90AF909F908F90089578
:1002C0008C0D9D1DDC01EC91B8E0EB9FF001112439
:1002D000E050FE4F88E0DE01119601900D928A9564
:1002E000E1F74E2D50E09E012F5F3F4F692D782D95
:1002F0008B2D9A2D0E94F10388E0E80EF394C8CF6D
:10030000AF92BF92CF92DF92EF92FF920F931F9323
:10031000CF93DF93CDB7DEB760970FB6F894DEBF0B
:100320000FBECDBF6C01162F40E150E060E270E0DF
:10033000CE0101965C010E94AE05F12CE12CF60184
:1003400086819781E816F9068CF060960FB6F894CE
:10035000DEBF0FBECDBFDF91CF911F910F91FF90F8
:10036000EF90DF90CF90BF90AF900895012F20E1E4
:1003700030E0A501B701C6010E942C019FEFE91AE8
:10038000F90ADDCFDF92EF92FF920F931F93CF9385
:10039000DF93CDB7DEB760970FB6F894DEBF0FBE20
:1003A000CDBFF82E192FD62EE72E042F40E150E0B6
:1003B00060E270E0CE0101960E94AE0520E130E0DF
:1003C000AE014F5F5F4F6D2D7E2D8F2D912F0E94BF
:1003D0002C0160960FB6F894DEBF0FBECDBFDF9143
:1003E000CF911F910F91FF90EF90DF900895FC0146
:1003F000808191818F3F910519F4CF010C94CF0436
:100400000895FC019B01CA0177FD02C057FF02C09D
:10041000108608954681578164177507CCF78417B5
:100420009507B4F761E060873287218794878387D7
:100430008217930784F081E090E09687858790E0AB
:1004400080E01786118A108A0196ED57FF4F8417B6
:100450009507BCF308958FEF9FEFEFCFDF92EF92F8
:10046000FF920F931F93CF93DF93EC01888588232E
:1004700019F10B851C858D859E85081B190B83E85A
:10048000D82EED84FE84E00EF11E40E0B701CE01CF
:100490000E94C201DE9CF001DF9CF00D1124EC0FE4
:1004A000FD1F178689859A858E159F0529F08D85F4
:1004B0009E85081B190BE5CFDF91CF911F910F91FE
:1004C000FF90EF90DF900895FC01808191818F3F34
:1004D000910519F4CF010C94EB040895FC01680F09
:1004E000791FE617F70709F408958191DF01119745
:1004F00080958C93F6CF982F28E030E080E0880F2D
:10050000492F4170840F969521503109C1F7089504
:100510000F931F93CF93DF93EC018C01060F171FEE
:10052000C017D10729F4DF91CF911F910F91089542
:1005300089910E947B02FE0131978083F1CF6F92F7
:100540007F928F929F92AF92BF92CF92DF92EF9263
:10055000FF920F931F93CF93DF93CDB7DEB728970A
:100560000FB6F894DEBF0FBECDBF8C0148E050E05F
:100570006FEF70E0CE0101966C010E94AE05F12C88
:10058000E12C7C2C6D2C580199EDA91A9BEFB90A2E
:10059000F80186819781E816F906ACF028960FB627
:1005A000F894DEBF0FBECDBFDF91CF911F910F91A9
:1005B000FF90EF90DF90CF90BF90AF909F908F9083
:1005C0007F906F90089588E0C82ED12C8981F50125
:1005D00090819923D1F086958983912C812C272DA8
:1005E000362DA401B701C8010E94F103FFEF8F1A55
:1005F0009F0A80E88816910491F791E0C91AD10802
:1006000029F7EFEFEE1AFE0AC3CF880FE5CFE62FEA
:10061000F72F929121E030E001C0220F8A95EAF78E
:10062000922B90830895E62FF72F929121E030E0EE
:1006300001C0220F8A95EAF7209529232083089587
:10064000FB01908121E030E001C0220F8A95EAF79A
:10065000922B90830895FB01908121E030E001C04E
:10066000220F8A95EAF72095292320830895EF9297
:10067000FF920F931F93CF93DF93EC01FC01EF5C8C
:10068000FB4F6081718182810E940703FE01EC5C57
:10069000FB4F6081718182810E9407037E0188ED9A
:1006A000E81A8BEFF80AF7016081718182810E945C
:1006B00007038E01055D1B4FF80160817181828106
:1006C0000E940703C25DDB4F688179818A810E94A5
:1006D0000703688179818A810E942003F701608184
:1006E000718182810E942003F80160817181828181
:1006F000DF91CF911F910F91FF90EF900C942B03FE
:10070000CF92DF92EF92FF920F931F93CF93DF93DD
:100710008C01D62F88E0E82EF12CC0E868018FEC20
:10072000C81A8BEFD80A0C5C1B4FF60160817181EF
:1007300082810E942B038D2F8C23F8018C131FC004
:100740006081718182810E942003F6016081718144
:1007500082810E942003F6016081718182810E9462
:100760002B03C695F1E0EF1AF108F9F6DF91CF916E
:100770001F910F91FF90EF90DF90CF9008956081CF
:10078000718182810E942B03E0CF1F93CF93DF936F
:10079000EC01162FFC01E55DFB4F608171818281C8
:1007A0000E942003612FCE010E94800380E0DF9130
:1007B000CF911F9108951F93CF93DF93EC01162FD4
:1007C000FC01E55DFB4F6081718182810E942B03FA
:1007D000612FCE010E94800380E0DF91CF911F91B5
:1007E0000895BF92CF92DF92EF92FF920F931F93E3
:1007F000CF93DF938C01D62EB22EC32EEA01229620
:100800007C0182EDE81A8BEFF80AF70160817181B3
:1008100082810E942B036C2F6F70C8010E94DB0342
:1008200084E0D595C7958A95E1F7CF7060E16C0FAC
:10083000C8010E94DB036D2D606BC8010E94DB03C1
:10084000CB2DDC2D6E01F8E0CF0ED11C6991C801D3
:100850000E94C503CC15DD05C9F7F70160817181E0
:100860008281DF91CF911F910F91FF90EF90DF90E8
:10087000CF90BF900C9420030F931F93CF93DF93DF
:10088000EC0188E090E09F838E838C819D8180972E
:1008900021F484E090E09F838E838E01025D1B4FE4
:1008A000F8016081718182810E942B036EEACE0182
:1008B0000E94DB0368EACE010E94DB036FE3CE01F6
:1008C0000E94DB0363EDCE010E94DB0360E0CE01FA
:1008D0000E94DB0360E4CE010E94DB03FE01E95DC0
:1008E000FB4F808160EA811101C061EACE010E9464
:1008F000DB0368ECCE010E94DB0365EDCE010E94B4
:10090000DB0360E8CE010E94DB036AEDCE010E94AA
:10091000DB0362E1CE010E94DB0361E8CE010E94AD
:10092000DB036FEFCE010E94DB0364EACE010E947D
:10093000DB036BEDCE010E94DB0360E4CE010E947D
:10094000DB0360E0CE010E94DB0362E0CE010E9487
:10095000DB0360E0CE010E94DB0360E1CE010E9478
:10096000DB036DE8CE010E94DB0364E1CE010E944F
:10097000DB036EE2CE010E94DB0366EACE010E9439
:10098000DB036FEACE010E94DB03F8016081718115
:100990008281DF91CF911F910F910C9420030F93CF
:1009A0001F93CF93DF938C01EB0177FF02C0D0E060
:1009B000C0E061E8C8010E94DB03BE01CF3FD10562
:1009C00019F014F06FEF70E0C801DF91CF911F9123
:1009D0000F910C94DB03CF93DF93EC01613011F5A1
:1009E00066E2CE010E94DB0360E0CE010E94DB03E1
:1009F00060E0CE010E94DB0367E0CE010E94DB03D2
:100A000067E0CE010E94DB0360E0CE010E94DB03C1
:100A10006FEFCE010E94DB036FE2CE01DF91CF9139
:100A20000C94DB03623081F1633081F569E20E944E
:100A3000DB0360E0CE010E94DB0360E0CE010E9498
:100A4000DB0367E0CE010E94DB0360E0CE010E9481
:100A5000DB036FE3CE010E94DB0363EACE010E9459
:100A6000DB0360E0CE010E94DB038C819D8180343A
:100A7000910521F460E4CE010E94DB038C819D810D
:100A8000809751F660E2C5CF67E2ABCF643029F0C2
:100A90006530C1F0DF91CF91089569E20E94DB03D8
:100AA00060E0CE010E94DB0360E0CE010E94DB0328
:100AB00067E0CE010E94DB0360E0CE010E94DB0311
:100AC00061E0C8CF6EE2A9CF0E948900D82FC92F5C
:100AD0008FE493EC0197F1F700C0000060E08D2FE8
:100AE0009C2F0E94800100E020E130E040E056E0D1
:100AF00070E060E08D2F9C2F0E942C012BE030E0F5
:100B000041E156E061E070E08D2F9C2F0E942C01A6
:100B10002FE030E04DE156E062E070E08D2F9C2F39
:100B20000E942C012BE030E04DE256E063E070E0E3
:100B30008D2F9C2F0E942C0120E130E049E356E0EC
:100B400064E070E08D2F9C2F0E942C019FE121EA30
:100B500087E0915020408040E1F7BECFDC0101C02A
:0E0B60006D9341505040E0F70895F894FFCF98
:100B6E000000000000000000000402FF020400006C
:100B7E00002040FF402000000000000000000000A8
:100B8E000000000000000000000000000000000057
:100B9E000000000000000000000000000000000047
:100BAE000000000000000000000000000000000037
:100BBE000000000000000000000000000000000027
:100BCE000000000000000000000000000000000017
:100BDE000000000000000000000000000000000007
:100BEE0000000000000000000000000000000000F7
:100BFE0000000000000000000000000000000000E7
:100C0E0000000000000000000000000000000000D6
:100C1E0000000000000000000000000000000000C6
:100C2E0000000000000000000000000000000000B6
:100C3E0000000000000000000000000000000000A6
:100C4E000000000000000000000000000000000096
:100C5E000000000000000000000000000000000086
:100C6E0000000000000000000000065F5F060000AC
:100C7E000003030003030000147F7F147F7F140022
:100C8E00242E6B6B3A120000466630180C6662001A
:100C9E00307A4F5D377A48000407030000000000E9
:100CAE00001C3E63410000000041633E1C0000003A
:100CBE00082A3E1C1C3E2A0808083E3E0808000072
:100CCE000080E06000000000080808080808000026
:100CDE0000006060000000006030180C0603010088
:100CEE003E7F71594D7F3E0040427F7F4040000065
:100CFE00627359496F660000226349497F360000CE
:100D0E00181C16537F7F5000276745457D3900001C
:100D1E003C7E4B4979300000030371790F070000C8
:100D2E00367F49497F360000064F49693F1E000055
:100D3E0000006666000000000080E666000000000D
:100D4E00081C3663410000002424242424240000BF
:100D5E00004163361C080000020351590F060000C3
:100D6E003E7F415D5D1F1E007C7E13137E7C000066
:100D7E00417F7F49497F36001C3E6341416322001B
:100D8E00417F7F41633E1C00417F7F495D4163008F
:100D9E00417F7F491D0103001C3E63415173720068
:100DAE007F7F08087F7F000000417F7F41000000A9
:100DBE00307040417F3F0100417F7F081C77630008
:100DCE00417F7F41406070007F7F0E1C0E7F7F0051
:100DDE007F7F060C187F7F001C3E6341633E1C0024
:100DEE00417F7F49090F06001E3F21717F5E000083
:100DFE00417F7F09197F6600266F4D5973320000BF
:100E0E0003417F7F410300007F7F40407F7F0000D2
:100E1E001F3F60603F1F00007F7F3018307F7F00D4
:100E2E0043673C183C674300074F78784F07000034
:100E3E00476371594D677300007F7F414100000089
:100E4E000103060C183060000041417F7F00000056
:100E5E00080C0603060C080080808080808080804D
:100E6E000000030704000000207454543C78400036
:100E7E00417F3F4848783000387C44446C2800005D
:100E8E00307848493F7F4000387C54545C1800004D
:100E9E00487E7F490302000098BCA4A4F87C04009D
:100EAE00417F7F08047C780000447D7D4000000077
:100EBE0060E08080FD7D0000417F7F10386C440033
:100ECE0000417F7F400000007C7C18381C7C78003D
:100EDE007C7C04047C780000387C44447C38000020
:100EEE0084FCF8A4243C1800183C24A4F8FC8400CC
:100EFE00447C784C041C1800485C54547424000044
:100F0E0000043E7F442400003C7C40403C7C40007A
:100F1E001C3C60603C1C00003C7C7038707C3C00CB
:100F2E00446C3810386C44009CBCA0A0FC7C0000C3
:100F3E004C64745C4C64000008083E77414100002C
:100F4E0000000077770000004141773E080800005E
:100F5E000203010302030100000000000000000074
:100F6E004C75696769205A7563636172656C6C694B
:100F7E000052656448617420496E632E005468699E
:100F8E007320697320736F20636F6F6C0043696108
:100F9E006F2042656C6C6F210033302D31302D3255
:0A0FAE003032312031373A3332007F
:00000001FF
